:100000000C9453020C947B020C947B020C947B02A4
:100010000C947B020C947B020C947B020C947B026C
:100020000C947B020C947B020C947B020C947B025C
:100030000C947B020C947B020C947B020C947B024C
:100040000C9498050C947B020C947B020C947B021C
:100050000C947B020C947B020C947B020C947B022C
:100060000C947B020C947B0205A84CCDB2D44EB903
:100070003836A9020C50B9918688083CA6AAAA2A4B
:10008000BE000000803F11007F96290001007F968E
:1000900028003A0155C0021010C10141C5040022D8
:1000A0008040360168B00100B102B011B40102B65F
:1000B0000302023BB701C63A0155F704A9512C824D
:1000C000C0020D0DC1024300C20100C5040048007A
:1000D00048B40100B60302023BE00F0F211C0B0ED7
:1000E00008499838091103141000E10F0F2F2B0C49
:1000F0000E06477637071104231E00B00100B30433
:1001000002000000B40100D003074218D103000729
:1001100010D2020102D3020102D4020102C0051270
:100120003B000211C103101088C50103C60102C8BB
:100130000C003236450616377577540C00CC01009A
:10014000F603010100CF03008130ED046403128146
:10015000E803851078CB05392C003402F70120EA3A
:10016000020000B00100B102001BB40100C0012177
:10017000C10111C5023F3CC701B5360148F201007B
:10018000260101E00F0F26240B0E0954A8460C1778
:10019000090F0700E10F00191B0410072A47390354
:1001A000060630380F360100B00100C104101002FD
:1001B00002C006003500000102C50104D20201049C
:1001C000CA0100EA0180B903FF83577F967F96B684
:1001D0000125C0065050013C1E08B4070240002A09
:1001E0002A0D787F01F20B16160308080808100480
:1001F0001616FD03110235B2050C0C003333B7019E
:1002000035BB012BC00104C20201FFC30111C401AF
:1002100020C6010FD002A4A1E00ED000050E150DDE
:100220003743470915121619E10ED000050D0C06CB
:100230002D44400E1C1816197F0AB00103E2013F3D
:10024000C00122E20100B00100C0010AB0010000BB
:10025000000000000000000000000000000100A4F9
:10026000000100FFFF0A00600000270800080830B6
:1002700000140231001537320004063300160E3424
:1002800000112235000015360007853700071438A5
:100290000003143900200090001500100010041114
:1002A000003702290046002A00460007000000121D
:1002B00000890113000011FFFF96001200B901012F
:1002C0000000010200000203003010090001000AD2
:1002D0000000000D0000000E003000610001006A07
:1002E000000000800000008100000082005F00929A
:1002F00000000193000107FFFF500007000001E527
:1003000000F0780100000102000002030030100438
:100310000000000500000008000702090000000AB4
:100320000000000C0000000D0000000F0000001095
:100330000000001100070012000000130000000779
:10034000000100FFFFC8001000901611002702FFF7
:10035000FF320012000D00FFFF32001300001229CF
:10036000000A002B000D00FFFF32002000000021DA
:1003700000000030000000310004043200030035AA
:100380000005043600080837000704380003033965
:100390000007073C0004053D0008086000002761D5
:1003A0000001006A0000008000000081000000825F
:1003B0000000008300000084000000850000009021
:1003C0000010009200000007003301E500008000EB
:1003D00000010001000001020000070300301004CA
:1003E00000000008000202090000000A0000000CE2
:1003F0000000000D0000000F0000001000000011C0
:100400000007001200000013000000FFFF32001080
:1004100000B01711000700FFFF0A0012003A01FFA9
:10042000FF0A001300001A29000C00FFFF0A003029
:1004300000000031000505320004003500060036DA
:100440000007073700050138000200390007073CA4
:100450000004073D000708600000A7610001006A72
:10046000000000210000002000000080000000814A
:10047000000000820000008300000084000000856E
:10048000000000900010009200000093000300950F
:10049000001001970000009800000007007301FFA2
:1004A000FF3200008F2211241FBECFEFD8E0DEBF45
:1004B000CDBF11E0A0E0B1E0ECE9F8E602C00590A4
:1004C0000D92A033B107D9F722E0A0E3B1E001C05B
:1004D0001D92A232B207E1F712E0C3E5D2E004C0F8
:1004E0002197FE010E944134C235D107C9F70E940D
:1004F000B5220C944C340C9400000895089581E0CA
:1005000090E008956F927F928F929F92AF92BF92E8
:10051000CF92DF92EF92FF920F931F93CF93DF93CF
:10052000EC014B015A0169013801E881F98102842B
:10053000F385E02D0995E881F9810288F389E02DA2
:1005400087019601A501B401CE010995E881F981E1
:10055000A501460D571D415051090288F389E02D30
:100560009601B401CE010995E881F9810088F189ED
:10057000E02D9301A501B401CE010995E881F9812F
:10058000C80CD91CB601615071090088F189E02DB1
:100590009301A501CE010995E881F9810688F789C3
:1005A000E02DCE01DF91CF911F910F91FF90EF9041
:1005B000DF90CF90BF90AF909F908F907F906F9083
:1005C0000994CF92DF92EF92FF920F931F93CF93F4
:1005D000DF9300D000D000D0CDB7DEB76C01DC01D6
:1005E000ED91FC916217730789F4041715072CF439
:1005F000942F852FA801092F182F041B150B980184
:100600002F5F3F4F048CF58DE02D12C0401751072E
:1006100009F5261737072CF4962F872FB901292FB4
:10062000382F261B370B2F5F3F4F068CF78DE02DA1
:100630008701C601099526960FB6F894DEBF0FBE56
:10064000CDBFDF91CF911F910F91FF90EF90DF9081
:10065000CF9008950284F385E02D2D833E834B8354
:100660005C8369837A830995D601ED91FC910488B6
:10067000F589E02D2D813E814B815C8169817A81F4
:10068000C6010995D601ED91FC910688F789E02D08
:10069000C60126960FB6F894DEBF0FBECDBFDF9120
:1006A000CF911F910F91FF90EF90DF90CF90099421
:1006B000EF92FF920F931F93DC01ED91FC91119744
:1006C0001A960D911C911B9718962D913C91199794
:1006D00000A0F1A1E02D7B0140E050E060E070E07F
:1006E00009951F910F91FF90EF9008954F925F929F
:1006F0006F927F928F929F92AF92BF92CF92DF9232
:10070000EF92FF920F931F93CF93DF9300D0CDB75B
:10071000DEB76C015A0139014801DC01ED91FC9111
:100720000284F385E02D69837A8309956981462ED9
:100730007A81572E640C751CD601ED91FC914614FC
:1007400057046CF40088F189E02D87019401A5011C
:10075000B201C6010995BFEF4B1A5B0AEDCF0688BF
:10076000F789E02DC6010F900F90DF91CF911F9177
:100770000F91FF90EF90DF90CF90BF90AF909F9040
:100780008F907F906F905F904F900994AF92BF923F
:10079000CF92DF92EF92FF920F931F93CF93DF934D
:1007A00000D000D0CDB7DEB75C016901DC01ED916E
:1007B000FC910284F385E02D4B835C8369837A830B
:1007C0000995D501ED91FC9169817A819B012C0DF0
:1007D0003D1D215031090488F589E02D78014B81B8
:1007E0005C818A01C5010995D501ED91FC910688CE
:1007F000F789E02DC5010F900F900F900F90DF91BA
:10080000CF911F910F91FF90EF90DF90CF90BF900D
:10081000AF900994AF92BF92CF92DF92EF92FF9286
:100820000F931F93CF93DF9300D000D0CDB7DEB7E7
:100830005C016901DC01ED91FC910284F385E02DFE
:100840004B835C8369837A830995D501ED91FC9193
:100850004B815C81C40ED51EB1E0CB1AD10804884F
:10086000F589E02D7801860169817A819B01C501B6
:100870000995D501ED91FC910688F789E02DC50118
:100880000F900F900F900F90DF91CF911F910F91CC
:10089000FF90EF90DF90CF90BF90AF9009940895B4
:1008A000EF92FF920F931F93DC01ED91FC9100A05A
:1008B000F1A1E02D09951F910F91FF90EF90089500
:1008C0000F931F93DC01ED91FC91068CF78DE02DC9
:1008D00009951F910F9108950F931F93DC01ED91DE
:1008E000FC91048CF58DE02D09951F910F910895D1
:1008F000DC01ED91FC910084F185E02D09940895CF
:100900002F923F924F925F926F927F928F929F921F
:10091000AF92BF92CF92DF92EF92FF920F931F930D
:10092000CF93DF9300D01F92CDB7DEB74C017B830E
:100930006A836A01590117019801241B350B37FF9F
:1009400003C0319521953109C5014A815B81841B22
:10095000950B97FF03C091958195910951E05983BB
:100960008217930714F019820BC09A2D8B2D580112
:10097000092F182F9A818B81DB82CA82C92ED82E2B
:100980008A819B81A816B9065CF49C2D8D2D680187
:10099000092F182F9A818B81BB82AA82A92EB82E8B
:1009A0002501AA81BB814A1A5B0A38016C187D08AF
:1009B00077FE03C0719461947108720157FE03C001
:1009C000BFEFEB1AFB0AF594E794C016D1061CF0B2
:1009D0000FEF1FEF1FC001E010E01CC0D401ED912C
:1009E000FC91B9810484F585E02D9101BB23C1F010
:1009F0004A815B81B601C4010995E618F708F7FE44
:100A000004C0C00ED11EE40CF51CEA81FB813196B6
:100A1000FB83EA834A815B81A416B506FCF604C019
:100A2000A6016A817B81E7CF0F900F900F90DF9135
:100A3000CF911F910F91FF90EF90DF90CF90BF90DB
:100A4000AF909F908F907F906F905F904F903F906E
:100A50002F900895EF92FF920F931F93DC01ED9179
:100A6000FC9100A0F1A1E02D780101E010E00995D2
:100A70001F910F91FF90EF900895EF92FF920F93C7
:100A80001F93DC01ED91FC9100A0F1A1E02D780114
:100A9000890121E030E009951F910F91FF90EF90BF
:100AA0000895089580E090E00895EF92FF920F93EB
:100AB0001F93DC01ED91FC9111971A960D911C91F9
:100AC0001B9718962D913C91199700A0F1A1E02D4C
:100AD0007B0140E050E060E070E009951F910F91CC
:100AE000FF90EF9008953FB7F89480913501909171
:100AF0003601A0913701B091380126B5A89B05C0F9
:100B00002F3F19F00196A11DB11D3FBFBA2FA92F8C
:100B1000982F8827820F911DA11DB11DBC01CD0109
:100B200042E0660F771F881F991F4A95D1F70895F5
:100B30001F920F920FB60F9211242F933F938F9312
:100B40009F93AF93BF938091310190913201A09117
:100B50003301B09134013091300123E0230F2D3760
:100B600020F40196A11DB11D05C026E8230F0296B1
:100B7000A11DB11D2093300180933101909332016A
:100B8000A0933301B09334018091350190913601E7
:100B9000A0913701B09138010196A11DB11D80933C
:100BA000350190933601A0933701B0933801BF917E
:100BB000AF919F918F913F912F910F900FBE0F900A
:100BC0001F9018954398429825B1392F33702C7F88
:100BD000232B25B92BB19C7F2370922B9BB9419875
:100BE000419A95B1282F23709C7F922B95B99BB188
:100BF0008C7F9370892B8BB94198419A429AFA0164
:100C0000460F842F8E1B18167CF4219195B1822FEC
:100C100083709C7F982B95B98BB12C7F8370822B2E
:100C20008BB94198419AEDCF439A0895BF92CF92E4
:100C3000DF92EF92FF920F931F93CF93DF93CDB785
:100C4000DEB768970FB6F894DEBF0FBECDBF8C013C
:100C50007B018EEFC82EDD24DA941E141F0464F588
:100C6000F80184913196B4900E5F1F4F8F3729F0B1
:100C7000202FDE011196F80108C06B2D70E080E096
:100C800090E00E94C10AB12C11C09E2F921B9B15AF
:100C900020F494919D933196F8CF0B0D111DAE0168
:100CA0004F5F5F4F6B2D90E00E94E205C6018B19EC
:100CB0009109E80EF91ED1CF68960FB6F894DEBF01
:100CC0000FBECDBFDF91CF911F910F91FF90EF909D
:100CD000DF90CF90BF9008954398429825B1392F67
:100CE00033702C7F232B25B92BB19C7F2370922B43
:100CF0009BB94198419A95B1282F23709C7F922BE4
:100D000095B99BB18C7F9370892B8BB94198419A8F
:100D1000429A85B1972F93708C7F892B85B98BB1BF
:100D20007C7F8370782B7BB94198419A85B1962F4F
:100D300093708C7F892B85B98BB16C7F8370682B06
:100D40006BB94198419A439A08950F931F93CF939B
:100D5000DF93EC018B0110161106B4F4FE018591AE
:100D600094912496FE013297659174918F3F2FEFF5
:100D7000920729F480E090E00E94C10A02C00E941C
:100D80006C0604501109E7CFDF91CF911F910F91AD
:100D90000895FC01848D258D24FB992790F99627D1
:100DA000692F70E071A360A380FF0CC0911103C094
:100DB00080E290E002C081E290E040E050E060E03C
:100DC0000C94E205868D978D873222E9920780F494
:100DD000853222E99207A0F4803224E59207C1F01F
:100DE000833927E79207A1F084359140A9F408C020
:100DF000863223E9920761F08930954B69F408C087
:100E0000660F771F660F771F636187E090E006C06B
:100E1000626081E094E002C081E690E00C946C0690
:100E20008F929F92AF92BF92CF92DF92EF92FF92FA
:100E30000F931F93CF93DF9300D000D0CDB7DEB7D1
:100E40007C014B015A016901FC01868D978D863228
:100E5000954189F4F701858980FF0DC0C801841B85
:100E6000950B19F40F5F1F4F06C02617370719F4AB
:100E7000C80ED91E8A01F701848D80FF1AC084A58F
:100E800099828A82DB82CC82AE014F5F5F4F64E041
:100E900090E00E94E205F70180A9B982AA821B8333
:100EA0000C83AE014F5F5F4F64E090E00E94E2056B
:100EB0003CC0B401F70186A197A10E946C06B50160
:100EC000F70180A591A50E946C068C149D0419F46D
:100ED000A016B10651F1F701848D85FF0EC08589FA
:100EE00080FF06C0102F0027A02AB12A850105C067
:100EF000DC2CCC248C289D286401B401F70184A546
:100F000095A50E946C06B501F70180A991A90E94E0
:100F10006C06B601F70186A597A50E946C06B8017C
:100F2000F70182A993A90E946C060F900F900F9071
:100F30000F90DF91CF911F910F91FF90EF90DF9075
:100F4000CF90BF90AF909F908F900895AF92BF9237
:100F5000CF92DF92EF92FF920F931F93CF93DF9385
:100F6000EC0137FF05C0620F731F319521953109E0
:100F7000260F371F77FF02C060E070E088859985F3
:100F8000821793070CF49C016901C61AD70A17FF50
:100F900005C0400F511F119501951109040F151F30
:100FA00057FF02C040E050E08A859B85801791077B
:100FB0000CF48C015801A41AB50A015011092150F2
:100FC0003109CE010E941007439842983AA58BA59B
:100FD00025B1982F93702C7F292B25B99BB18C7F3D
:100FE0009370982B9BB94198419A95B1832F837048
:100FF0009C7F982B95B98BB13C7F8370832B8BB9E9
:101000004198419A429ACA14DB042CF49C2D8D2DF0
:101010006501A92EB82E9F2D93705F2D5C7F4E2DFC
:1010200043706E2D6C7F1A141B04E4F4960185B195
:101030008C7F892B85B98BB18370852B8BB94198B7
:10104000419A85B18C7F842B85B98BB18370862BB7
:101050008BB94198419A2150310949F721E0A21AF0
:10106000B108E1CF439A8C8D80FF08C08E8D9F8D93
:101070008632954191F48D8980FF0FC00A851B85CA
:1010800001501109288539852150310940E050E08F
:1010900060E070E0CE010E941007DF91CF911F91B8
:1010A0000F91FF90EF90DF90CF90BF90AF90089599
:1010B000EF92FF920F931F93CF93DF9377FD22C0A0
:1010C00057FD20C0DC011896ED91FC9119976E1721
:1010D0007F07C4F41A96ED91FC911B974E175F079A
:1010E0008CF47901EC018A019B010E941007B70181
:1010F0008AA59BA5DF91CF911F910F91FF90EF9053
:101100000C946C06DF91CF911F910F91FF90EF909F
:101110000895EF92FF920F931F93CF93DF93CDB774
:10112000DEB72A970FB6F894DEBF0FBECDBF7C01A5
:10113000862F8370F701858B962F917060FF03C017
:101140002681378103C0F70124813581F70131877A
:101150002087992319F02481358103C0F701268166
:101160003781F70133872287823041F0833041F0A5
:10117000813011F088E405C088E203C088E901C02D
:1011800088EF8A87F701848D958D90FF03C02A85AB
:1011900020582A8791FF04C03A8520E423272A8714
:1011A00093FF04C03A8528E023272A8780FF46C0A2
:1011B000F701868D978D84319846F1F49A85892FB1
:1011C000881F8827881F8295880F880F807C96FD4E
:1011D00002C020E001C020E298729A871F828260DC
:1011E000822B88878BE38987AE01495F5F4F63E07D
:1011F00086EB90E00E94E2052AE230E0F70137A397
:1012000026A38BE290E091A780A74CE250E053A781
:1012100042A735A724A737A726A791AB80AB93ABEE
:1012200082ABAE01465F5F4F61E086E390E00E94D3
:10123000E2058A8590E0F70193A382A3F7018589EF
:1012400080FF1CC0848D958D92FD18C086A197A14A
:1012500020A531A537A326A391A780A784A595A58E
:1012600020A931A935A724A791AB80AB86A597A566
:1012700022A933A937A726A793AB82ABF701028532
:10128000138501501109208531852150310940E035
:1012900050E060E070E0C7010E941007F70136815E
:1012A0004781868D978D8732F3E99F0711F020E003
:1012B00001C020E2F701548D50FF24C019821A8228
:1012C0004B833C831D822E83AE014F5F5F4F66E0F0
:1012D00083E390E00E94E20519821A82AE014F5F1B
:1012E0005F4F62E087E390E00E94E205F701848DA2
:1012F00080FF34C040E050E060E083E190E00E9475
:10130000E2052CC0F70160A171A18339F7E79F07BF
:1013100081F040F48032E4E59E0759F08338974726
:1013200099F011C0863223E9920719F08930954B64
:1013300051F4626081E094E00E946C0660E070E02D
:1013400084E094E009C0626081E690E00E946C064F
:1013500060E070E08AE690E00E946C062A960FB684
:10136000F894DEBF0FBECDBFDF91CF911F910F91DB
:10137000FF90EF900895CF92DF92EF92FF920E943C
:10138000B63024E6C22ED12CE12CF12CA701960117
:101390000E94C4300E943C3220E030E048EC52E42D
:1013A0000E94993120E030E040EC5FE30E94283158
:1013B0006093390170933A0180933B0190933C0113
:1013C0000E94B630A70196010E94C4300E943C32B0
:1013D00020E030E048EC52E40E94993120E030E017
:1013E00040EC5FE30E94283160933D0170933E0121
:1013F00080933F01909340010E94B630A70196016F
:101400000E94C4300E943C3220E030E048EC52E4BC
:101410000E94993120E030E040E050E40E94283101
:101420006093410170934201809343019093440182
:101430000E94B630A70196010E94C4300E943C323F
:1014400020E030E046E953E40E9499319B01AC0171
:101450006BED7FE089EC9FE30E9427316093CF0121
:101460007093D0018093D1019093D2010E94B63045
:10147000A70196010E94C4300E943C3220E030E077
:1014800046E953E40E9499319B01AC016BED7FE08A
:1014900089EC9FE30E9427316093CB017093CC01CC
:1014A0008093CD019093CE010E94B630A7019601A2
:1014B0000E94C4300E943C3220E030E046E953E410
:1014C0000E9499319B01AC016BED7FE089EC9FE3B9
:1014D0000E9427316093C7017093C8018093C901AE
:1014E0009093CA011092D4011092D3011092460138
:1014F00010924501E7E8F1E0A7E4B1E01182108223
:101500001382128211961C921E9213961C921E92A6
:1015100012973496149681E0E73CF80779F7FF902C
:10152000EF90DF90CF900895CF92DF92EF92FF92ED
:101530000F931F93CF93DF936C017A018B01C0E06F
:10154000D0E0CE15DF0589F0D8016D918D01D6016F
:10155000ED91FC910190F081E02DC6010995892B58
:1015600011F47E0102C02196ECCFC701DF91CF912B
:101570001F910F91FF90EF90DF90CF9008950E9400
:1015800047348F929F92AF92BF92CF92DF92EF92A9
:10159000FF926B017C010E9473054B015C01C11439
:1015A000D104E104F104F1F00E947305DC01CB01E8
:1015B00088199909AA09BB09883E9340A105B1057C
:1015C00070F321E0C21AD108E108F10888EE880E14
:1015D00083E0981EA11CB11CC114D104E104F104E4
:1015E00019F7DDCFFF90EF90DF90CF90BF90AF90D5
:1015F0009F908F9008954F925F926F927F928F92FB
:101600009F92AF92BF92CF92DF92EF92FF920F9391
:101610001F93CF93DF93CDB7DEB7C457D1090FB671
:10162000F894DEBF0FBECDBF69837A838B839C8322
:101630002D8F3E8F4F8F58A3ED86FE860F87188B18
:10164000AD8ABE8ACF8AD88ECD56DF4F488059806A
:101650006A807B80C359D04023EC35EF4CE951E4DC
:10166000C301B2010E9469334B015C01A3019201E5
:101670000E94693325966CAF7DAF8EAF9FAF2597E3
:1016800069817A818B819C810E94D6336DA37EA370
:101690008FA398A7A8019701C801B7010E9428311C
:1016A00069877A878B879C879B01AC0169817A81E6
:1016B0008B819C810E94273169A37AA38BA39CA371
:1016C0000E94D63369AB7AAB8BAB9CAB2D8D3E8D34
:1016D0004F8D58A1CA01B9010E9428316B017C01CC
:1016E0002DEC3CEC4CEC5DE30E9469336D837E8312
:1016F0008F839887C956DF4F288139814A815B8162
:10170000C759D0400E94693329966CAF7DAF8EAF28
:101710009FAF2997A30192016D817E818F8198856A
:101720000E9469332D966CAF7DAF8EAF9FAF2D9722
:101730002DEC3CEC4CEC5DE36D8D7E8D8F8D98A196
:101740000E9469336D837E838F839887C956DF4FEC
:10175000288139814A815B81C759D0400E94693311
:1017600069A77AA78BA79CA7A30192016D817E81AF
:101770008F8198850E9469336DA77EA78FA798AB4C
:1017800020E030E040E850E46D897E898F89988DB3
:101790000E9469332D893E894F89588D0E94693393
:1017A000A30192010E94693361966CAF7DAF8EAF49
:1017B0009FAF61972D853E854F85588969817A81D4
:1017C0008B819C810E9427310E94D6336DAB7EAB0A
:1017D0008FAB98AFC956DF4F288139814A815B8131
:1017E000C759D040C501B4010E94693365966CAFFA
:1017F0007DAF8EAF9FAF659723EC35EF4CE151E4A1
:10180000C157DF4F688179818A819B81CF58D04051
:101810000E946933C956DF4F288139814A815B8133
:10182000C759D0400E94693369966CAF7DAF8EAFC7
:101830009FAF6997C957DF4F288139814A815B8102
:10184000C758D040CA01B9010E9428314B015C0140
:101850009B01AC0169A17AA18BA19CA10E942831B6
:101860000E94D633A9966CAF7DAF8EAF9FAFA9977C
:1018700029853A854B855C8569817A818B819C813C
:101880000E942831A50194010E9427310E94D6337D
:10189000AD966CAF7DAF8EAF9FAFAD972D8D3E8D6A
:1018A0004F8D58A1C701B6010E946933A30192016F
:1018B0000E9469336D966CAF7DAF8EAF9FAF6D9711
:1018C00029813A814B815C81CA01B9010E9428318A
:1018D0006B017C0129853A854B855C850E94273107
:1018E0009B01AC01E2962FAFE297E3963FAFE397FF
:1018F000E4964FAFE497E5965FAFE5970E94D63345
:1019000069AF7AAF8BAF9CAFE2962FADE297E396CB
:101910003FADE397E4964FADE497E5965FADE5976D
:10192000CA01B9010E9494316D837E838F839887A9
:10193000A501940169857A858B859C850E94273154
:101940000E94943169877A878B879C87A5019401CF
:10195000C701B6010E9427310E94943121966CAFD5
:101960007DAF8EAF9FAF2197C557DF4F288139815B
:101970004A815B81CB58D040CA01B9010E9428310D
:10198000C557DF4F288139814A815B81CB58D040D0
:101990000E946933A30192010E946933C956DF4F47
:1019A000288139814A815B81C759D0400E946933BF
:1019B000698F7A8F8B8F9C8FC957DF4F2881398130
:1019C0004A815B81C758D04069817A818B819C8133
:1019D0000E9427310E94D633E1966CAF7DAF8EAF67
:1019E0009FAFE1972DEC3CEC4CEC5DE36D897E897B
:1019F0008F89988D0E9469336B017C01C956DF4F36
:101A0000288139814A815B81C759D0400E9469335E
:101A1000A1966CAF7DAF8EAF9FAFA1972D853E8510
:101A20004F85588969817A818B819C810E942831F8
:101A3000A50194010E9427310E9494316D8B7E8B09
:101A40008F8B988FA3019201C701B6010E94693361
:101A5000A5966CAF7DAF8EAF9FAFA59720E030E02D
:101A600040E450E46D857E858F8598890E946933B6
:101A70009B01AC0169817A818B819C810E94273115
:101A8000A50194010E9428310E9494314B015C0110
:101A9000C957DF4F288139814A815B81C758D040BF
:101AA00069A17AA18BA19CA10E9428310E94D63302
:101AB00069A37AA38BA39CA3C157DF4F28813981E7
:101AC0004A815B81CF58D040CA01B9010E942831B8
:101AD000C956DF4F288139814A815B81C759D0407F
:101AE0000E94693369837A838B839C83A30192016B
:101AF000C301B2010E9428316B017C01C956DF4F3E
:101B0000288139814A815B81C759D0400E9469335D
:101B10006D877E878F87988BA3019201C701B601DD
:101B20000E946933698B7A8B8B8B9C8B2DA13EA194
:101B30004FA158A525966CAD7DAD8EAD9FAD259777
:101B40000E9469336B017C0129A93AA94BA95CA9C0
:101B500025966CAD7DAD8EAD9FAD25970E94693306
:101B60009B01AC01C701B6010E9428316B017C01C9
:101B700020E030E040E850E46D8D7E8D8F8D98A19F
:101B80000E9469332DEC3CEC4CEC5DE30E94693320
:101B9000A30192010E9469339B01AC01C701B60108
:101BA0000E94283129962CAD3DAD4EAD5FAD2997F1
:101BB0000E9428312D962CAD3DAD4EAD5FAD2D97D9
:101BC0000E94283129A53AA54BA55CA50E94283181
:101BD0002DA53EA54FA558A90E9428316B017C0177
:101BE000A301920161966CAD7DAD8EAD9FAD619705
:101BF0000E9469332DA93EA94FA958AD0E946933AF
:101C00009B01AC01C701B6010E9428316B017C0128
:101C100023EC35EF4CE152E4C157DF4F6881798105
:101C20008A819B81CF58D0400E946933A3019201E1
:101C30000E9469332DA13EA14FA158A50E9469338E
:101C40009B01AC01C701B6010E9428316B017C01E8
:101C500023EC35EF4CE951E4C157DF4F68817981BE
:101C60008A819B81CF58D0400E946933C956DF4F8B
:101C7000288139814A815B81C759D0400E946933EC
:101C80002DA13EA14FA158A50E9469339B01AC0133
:101C9000C701B6010E9428316B017C012DA13EA134
:101CA0004FA158A565966CAD7DAD8EAD9FAD659786
:101CB0000E9469339B01AC01C701B6010E94283123
:101CC0006B017C01A9962CAD3DAD4EAD5FADA997E2
:101CD00069966CAD7DAD8EAD9FAD69970E946933FD
:101CE0009B01AC01C701B6010E9427316B017C0149
:101CF000AD962CAD3DAD4EAD5FADAD9769966CAD7B
:101D00007DAD8EAD9FAD69970E9469339B01AC019B
:101D1000C701B6010E9427316B017C0129A93AA9AC
:101D20004BA95CA965966CAD7DAD8EAD9FAD6597F9
:101D30000E9469339B01AC01C701B6010E942831A2
:101D40006B017C01A30192016D966CAD7DAD8EADF2
:101D50009FAD6D970E94693329AD3AAD4BAD5CAD37
:101D60000E9469339B01AC01C701B6010E94283172
:101D70006B017C012D813E814F8158852D966CAD84
:101D80007DAD8EAD9FAD2D970E9469339B01AC0157
:101D9000C701B6010E9427316B017C012D813E8174
:101DA0004F81588569A57AA58BA59CA50E946933AA
:101DB0009B01AC01C701B6010E9427316B017C0178
:101DC0002D813E814F8158856DA57EA58FA598A94F
:101DD0000E9469339B01AC01C701B6010E94273103
:101DE0006B017C0129853A854B855C8529966CAD14
:101DF0007DAD8EAD9FAD29970E9469339B01AC01EB
:101E0000C701B6010E9427316B017C0121962CADE0
:101E10003DAD4EAD5FAD219769A57AA58BA59CA57B
:101E20000E9469339B01AC01C701B6010E942831B1
:101E30006B017C0121962CAD3DAD4EAD5FAD219780
:101E40006DA57EA58FA598A90E9469339B01AC0161
:101E5000C701B6010E9427316B017C0129853A85B3
:101E60004B855C8569A57AA58BA59CA50E946933E5
:101E70009B01AC01C701B6010E9427316B017C01B7
:101E800029853A854B855C856DA57EA58FA598A98A
:101E90000E9469339B01AC01C701B6010E94283141
:101EA0006B017C01C956DF4F288139814A815B81F2
:101EB000C759D04061966CAD7DAD8EAD9FAD619739
:101EC0000E9469332DA93EA94FA958AD0E946933DC
:101ED0009B01AC01C701B6010E9428316B017C0156
:101EE000E1962CAD3DAD4EAD5FADE197698D7A8D3C
:101EF0008B8D9C8D0E9469339B01AC01C701B6019B
:101F00000E9428316B017C012D893E894F89588DB3
:101F1000A1966CAD7DAD8EAD9FADA1970E9469334A
:101F20009B01AC01C701B6010E9428316B017C0105
:101F30002D893E894F89588DA5966CAD7DAD8EADAE
:101F40009FADA5970E9469339B01AC01C701B60103
:101F50000E9427316B017C01C956DF4F28813981EE
:101F60004A815B81C759D0406D966CAD7DAD8EAD19
:101F70009FAD6D970E94693329AD3AAD4BAD5CAD15
:101F80000E9469339B01AC01C701B6010E94283150
:101F90006B017C01A5019401A1966CAD7DAD8EAD68
:101FA0009FADA1970E9469339B01AC01C701B601A7
:101FB0000E9427316B017C01A5019401A5966CADAF
:101FC0007DAD8EAD9FADA5970E9469339B01AC019D
:101FD000C701B6010E9428316B017C0129A13AA1F9
:101FE0004BA15CA1698D7A8D8B8D9C8D0E9469338C
:101FF0009B01AC01C701B6010E9428316B017C0135
:10200000F7FAF094F7F8F09420E030E040E850E47C
:10201000C157DF4F688179818A819B81CF58D04039
:102020000E946933A30192010E94693329813A8198
:102030004B815C810E9428312D853E854F855889D2
:102040000E9428314B015C012D813E814F815885D2
:1020500069897A898B899C890E9469339B01AC01CB
:10206000C501B4010E94273129893A894B895C89CD
:102070000E9428314B015C012D813E814F815885A2
:102080006D857E858F8598890E9469339B01AC019F
:10209000C501B4010E9427314B015C0129853A85B5
:1020A0004B855C8569817A818B819C810E94693333
:1020B0009B01AC01C501B4010E9427319B01AC0119
:1020C000C701B6010E949931CC58DF4F0FB6F89482
:1020D000DEBF0FBECDBFDF91CF911F910F91FF905B
:1020E000EF90DF90CF90BF90AF909F908F907F90B8
:1020F0006F905F904F9008954F925F926F927F9292
:102100008F929F92AF92BF92CF92DF92EF92FF9207
:102110000F931F93CF93DF93CDB7DEB7C859D10983
:102120000FB6F894DEBF0FBECDBF6D8B7E8B8F8B4D
:10213000988F29873A874B875C87E982FA820B83DD
:102140001C83A9A2BAA2CBA2DCA2C954DF4F88800B
:102150009980AA80BB80C75BD04023EC35EF4CE967
:1021600051E4C501B4010E9469336B017C01A501F2
:1021700094010E94693369966CAF7DAF8EAF9FAFBB
:1021800069972D893E894F89588DCA01B9010E94EE
:102190002831698B7A8B8B8B9C8B29813A814B817F
:1021A0005C810E94273125966CAF7DAF8EAF9FAFCB
:1021B00025970E94D6336DA37EA38FA398A769812C
:1021C0007A818B819C810E94D63369A77AA78BA7DD
:1021D0009CA729A13AA14BA15CA1CA01B9010E9407
:1021E00028316D837E838F8398872DEC3CEC4CECFB
:1021F0005DE30E9469332B013C01A50194010E941B
:1022000069336D966CAF7DAF8EAF9FAF6D97CD5438
:10221000DF4F288139814A815B81C35BD040C30194
:10222000B2010E946933A1966CAF7DAF8EAF9FAFB4
:10223000A1972DEC3CEC4CEC5DE369A17AA18BA15C
:102240009CA10E9469332B013C01C554DF4F2881BA
:1022500039814A815B81CB5BD0400E9469336DAB91
:102260007EAB8FAB98AFA5019401C301B2010E9470
:10227000693369AF7AAF8BAF9CAF23EC35EF4CE994
:1022800051E4CD54DF4F688179818A819B81C35BA2
:10229000D0400E946933A50194010E946933A5963C
:1022A0006CAF7DAF8EAF9FAFA59723EC35EF4CE1C0
:1022B00051E4CD54DF4F688179818A819B81C35B72
:1022C000D0400E946933C554DF4F288139814A814B
:1022D0005B81CB5BD0400E94693321966CAF7DAFB0
:1022E0008EAF9FAF2197C554DF4F288139814A8136
:1022F0005B81CB5BD040C701B6010E946933A996D0
:102300006CAF7DAF8EAF9FAFA99720E030E040E883
:1023100050E469857A858B859C850E9469332B0101
:102320003C0129853A854B855C850E946933AD96D1
:102330006CAF7DAF8EAF9FAFAD97A50194010E94AA
:102340006933E1966CAF7DAF8EAF9FAFE197298186
:102350003A814B815C816D897E898F89988D0E943D
:1023600027316B017C010E94D6336DA77EA78FA712
:1023700098ABC555DF4F288139814A815B81CB5AA3
:10238000D040CA01B9010E9428316D877E878F87AE
:10239000988B29813A814B815C8169897A898B8903
:1023A0009C890E9428312D853E854F8558890E9441
:1023B00027310E94D633C357DF4F688379838A83DE
:1023C0009B83CD58D0402D853E854F8558896981A6
:1023D0007A818B819C810E9427310E94D633CF560F
:1023E000DF4F688379838A839B83C159D04029A1B9
:1023F0003AA14BA15CA16D817E818F8198850E945D
:102400006933E5966CAF7DAF8EAF9FAFE597A501C1
:1024100094010E946933E9966CAF7DAF8EAF9FAF98
:10242000E99729813A814B815C81CA01B9010E94F7
:102430002831698F7A8F8B8F9C8F9B01AC016989C2
:102440007A898B899C890E9427316D837E838F8353
:1024500098870E94D6332D966CAF7DAF8EAF9FAF1D
:102460002D972DEC3CEC4CEC5DE3C301B2010E94D6
:102470006933ED966CAF7DAF8EAF9FAFED97C7011F
:10248000B6010E94943169AB7AAB8BAB9CAB2985CA
:102490003A854B855C85CA01B9010E9428316B01E0
:1024A0007C012DEC3CEC4CEC5DE30E9469332B018C
:1024B0003C01C554DF4F288139814A815B81CB5B68
:1024C000D0400E946933C358DF4F688379838A8381
:1024D0009B83CD57D040CD54DF4F288139814A812D
:1024E0005B81C35BD040C301B2010E946933CF5707
:1024F000DF4F688379838A839B83C158D0406D8185
:102500007E818F8198850E9494316D837E838F8335
:1025100098872D853E854F85588969897A898B8969
:102520009C890E9427310E94943161966CAF7DAFE7
:102530008EAF9FAF61972D853E854F855889698DF8
:102540007A8D8B8D9C8D0E94273129966CAF7DAF43
:102550008EAF9FAF29970E949431698B7A8B8B8BBA
:102560009C8B29853A854B855C85C701B6010E9405
:102570006933CD54DF4F288139814A815B81C35B48
:10258000D0400E946933C554DF4F288139814A8188
:102590005B81CB5BD0400E946933CB57DF4F6883B0
:1025A00079838A839B83C558D040C555DF4F2881E6
:1025B00039814A815B81CB5AD04069817A818B8194
:1025C0009C810E9427310E94D63365966CAF7DAF07
:1025D0008EAF9FAF6597C155DF4F288139814A8102
:1025E0005B81CF5AD040CA01B9010E942831C15540
:1025F000DF4F288139814A815B81CF5AD0400E94C8
:102600006933A50194010E946933C554DF4F2881C5
:1026100039814A815B81CB5BD0400E946933C757C7
:10262000DF4F688379838A839B83C958D04029818F
:102630003A814B815C816D897E898F89988D0E945A
:1026400028312D853E854F8558890E9427316B01A1
:102650007C010E949431698F7A8F8B8F9C8F2DEC37
:102660003CEC4CEC5DE369857A858B859C850E940A
:1026700069332B013C01C554DF4F288139814A81E0
:102680005B81CB5BD0400E94693369877A878B87F7
:102690009C87A5019401C301B2010E9469332B01FB
:1026A0003C01C555DF4F288139814A815B81CB5A76
:1026B000D04025966CAD7DAD8EAD9FAD25970E9427
:1026C00027310E94D63325966CAF7DAF8EAF9FAF7A
:1026D000259729966CAD7DAD8EAD9FAD29970E9453
:1026E000D63329966CAF7DAF8EAF9FAF299720E090
:1026F00030E040E450E46D897E898F89988D0E9496
:1027000069339B01AC0169817A818B819C810E9434
:1027100027312D853E854F8558890E9428310E949A
:10272000943169837A838B839C83C701B6010E94AD
:10273000D633CB56DF4F688379838A839B83C55911
:10274000D040C554DF4F288139814A815B81CB5B02
:10275000D040CD54DF4F688179818A819B81C35BF2
:10276000D0400E9469336D877E878F87988BC554D0
:10277000DF4F288139814A815B81CB5BD040C50125
:10278000B4010E9469336D8B7E8B8F8B988FA5016E
:102790009401C501B4010E9469336D8F7E8F8F8FC4
:1027A00098A32DA13EA14FA158A569966CAD7DAD12
:1027B0008EAD9FAD69970E9469336B017C0129A59D
:1027C0003AA54BA55CA569966CAD7DAD8EAD9FAD70
:1027D00069970E9469339B01AC01C701B6010E9451
:1027E00027316B017C0120E030E040E850E469A132
:1027F0007AA18BA19CA10E9469332DEC3CEC4CEC9E
:102800005DE30E946933CD54DF4F288139814A81CD
:102810005B81C35BD0400E9469339B01AC01C7015F
:10282000B6010E9427316D962CAD3DAD4EAD5FAD2A
:102830006D970E942731A1962CAD3DAD4EAD5FAD99
:10284000A1970E9427312DA93EA94FA958AD0E94FA
:10285000273129AD3AAD4BAD5CAD0E9427316B01FC
:102860007C012DA13EA14FA158A5A5966CAD7DADD3
:102870008EAD9FADA5970E9469339B01AC01C70146
:10288000B6010E9428316B017C012DA13EA14FA110
:1028900058A521966CAD7DAD8EAD9FAD21970E9460
:1028A00069339B01AC01C701B6010E9428316B015D
:1028B0007C012DA13EA14FA158A5A9966CAD7DAD7F
:1028C0008EAD9FADA9970E9469339B01AC01C701F2
:1028D000B6010E9428316B017C01A5019401E196AB
:1028E0006CAD7DAD8EAD9FADE1970E9469332DA596
:1028F0003EA54FA558A90E9469339B01AC01C701B1
:10290000B6010E9428316B017C0129A53AA54BA58F
:102910005CA5A5966CAD7DAD8EAD9FADA5970E94D3
:1029200069339B01AC01C701B6010E9427316B01DD
:102930007C0129A53AA54BA55CA521966CAD7DAD82
:102940008EAD9FAD21970E9469339B01AC01C701F9
:10295000B6010E9427316B017C0129A53AA54BA540
:102960005CA5A9966CAD7DAD8EAD9FADA9970E947B
:1029700069339B01AC01C701B6010E9427316B018D
:102980007C01C357DF4F288139814A815B81CD5853
:10299000D04021966CAD7DAD8EAD9FAD21970E944C
:1029A00069339B01AC01C701B6010E9427316B015D
:1029B0007C01CF56DF4F288139814A815B81C15923
:1029C000D04021966CAD7DAD8EAD9FAD21970E941C
:1029D00069339B01AC01C701B6010E9427316B012D
:1029E0007C01A5019401E9966CAD7DAD8EAD9FADE6
:1029F000E9970E9469332D962CAD3DAD4EAD5FAD8C
:102A00002D970E9469339B01AC01C701B6010E945A
:102A100028316B017C01A5019401ED966CAD7DAD73
:102A20008EAD9FADED970E94693329A93AA94BA9B4
:102A30005CA90E9469339B01AC01C701B6010E94E9
:102A400028316B017C01CD54DF4F288139814A81C7
:102A50005B81C35BD040ED966CAD7DAD8EAD9FAD1F
:102A6000ED970E94693329A93AA94BA95CA90E9454
:102A700069339B01AC01C701B6010E9427316B018C
:102A80007C0129A93AA94BA95CA9C358DF4F6881E9
:102A900079818A819B81CD57D0400E9469339B0107
:102AA000AC01C701B6010E9428316B017C0129A944
:102AB0003AA94BA95CA9CF57DF4F688179818A81F8
:102AC0009B81C158D0400E9469339B01AC01C70172
:102AD000B6010E9427316B017C012D813E814F811F
:102AE00058856D966CAD7DAD8EAD9FAD6D970E9496
:102AF00069339B01AC01C701B6010E9428316B010B
:102B00007C012D813E814F8158856DA97EA98FA9B9
:102B100098AD0E9469339B01AC01C701B6010E94C8
:102B200028316B017C012D813E814F81588569AD33
:102B30007AAD8BAD9CAD0E9469339B01AC01C7019E
:102B4000B6010E9428316B017C0161962CAD3DAD30
:102B50004EAD5FAD61976DA97EA98FA998AD0E941A
:102B600069339B01AC01C701B6010E9428316B019A
:102B70007C0129893A894B895C89A1966CAD7DAD30
:102B80008EAD9FADA1970E9469339B01AC01C70137
:102B9000B6010E9428316B017C0161962CAD3DADE0
:102BA0004EAD5FAD619769AD7AAD8BAD9CAD0E94C6
:102BB00069339B01AC01C701B6010E9427316B014B
:102BC0007C0129893A894B895C896DA97EA98FA9E5
:102BD00098AD0E9469339B01AC01C701B6010E9408
:102BE00027316B017C0129893A894B895C8969AD60
:102BF0007AAD8BAD9CAD0E9469339B01AC01C701DE
:102C0000B6010E9428316B017C01CD54DF4F288131
:102C100039814A815B81C35BD040AD966CAD7DAD9F
:102C20008EAD9FADAD970E946933A50194010E94BE
:102C300069332DA53EA54FA558A90E9469339B0174
:102C4000AC01C701B6010E9428316B017C012DA5A2
:102C50003EA54FA558A9CB57DF4F688179818A815E
:102C60009B81C558D0400E9469339B01AC01C701CC
:102C7000B6010E9428316B017C01C554DF4F2881C9
:102C800039814A815B81CB5BD040E1966CAD7DADF3
:102C90008EAD9FADE1970E9469332DA53EA54FA54E
:102CA00058A90E9469339B01AC01C701B6010E947B
:102CB00028316B017C0120E030E040E850E4C15550
:102CC000DF4F688179818A819B81CF5AD0400E94F1
:102CD0006933C155DF4F288139814A815B81CF5AE1
:102CE000D0400E946933CD54DF4F288139814A8119
:102CF0005B81C35BD0400E946933C554DF4F28819C
:102D000039814A815B81CB5BD0400E9469336596F3
:102D10002CAD3DAD4EAD5FAD65970E9469339B0113
:102D2000AC01C701B6010E9427316B017C01659699
:102D30002CAD3DAD4EAD5FAD6597C757DF4F688198
:102D400079818A819B81C958D0400E9469339B0157
:102D5000AC01C701B6010E9427316B017C01298DAE
:102D60003A8D4B8D5C8DC358DF4F688179818A81A4
:102D70009B81CD57D0400E9469339B01AC01C701B4
:102D8000B6010E9427316B017C01298D3A8D4B8D54
:102D90005C8DCF57DF4F688179818A819B81C158D3
:102DA000D0400E9469339B01AC01C701B6010E946B
:102DB00028316B017C01298D3A8D4B8D5C8D6985A5
:102DC0007A858B859C850E9469339B01AC01C70184
:102DD000B6010E9427316B017C01298D3A8D4B8D04
:102DE0005C8DC301B2010E9469339B01AC01C70134
:102DF000B6010E9428316B017C0125962CAD3DADBA
:102E00004EAD5FAD2597C757DF4F688179818A81C5
:102E10009B81C958D0400E9469339B01AC01C70116
:102E2000B6010E9428316B017C01C554DF4F288117
:102E300039814A815B81CB5BD040E9966CAD7DAD39
:102E40008EAD9FADE9970E9469332D962CAD3DADB7
:102E50004EAD5FAD2D970E9469339B01AC01C70158
:102E6000B6010E9428316B017C01CD54DF4F2881CF
:102E700039814A815B81C35BD040E5966CAD7DAD05
:102E80008EAD9FADE5970E946933C554DF4F288111
:102E900039814A815B81CB5BD0400E94693329969E
:102EA0002CAD3DAD4EAD5FAD29970E9469339B01BE
:102EB000AC01C701B6010E9427316B017C01298159
:102EC0003A814B815C8169857A858B859C850E94DE
:102ED00069339B01AC01C701B6010E9428316B0127
:102EE0007C0129813A814B815C81C301B2010E943E
:102EF00069339B01AC01C701B6010E9427316B0108
:102F00007C01CB56DF4F288139814A815B81C559CD
:102F1000D040CB57DF4F688179818A819B81C5582A
:102F2000D0400E9469339B01AC01C701B6010E94E9
:102F300027316B017C01CD54DF4F288139814A81D3
:102F40005B81C35BD040CA01B9010E942831A50151
:102F500094010E9469332D853E854F8558890E94D2
:102F600028312D893E894F89588D0E9428314B0187
:102F70005C012D813E814F8158856D8D7E8D8F8DB9
:102F800098A10E9469339B01AC01C501B4010E9464
:102F900027312D8D3E8D4F8D58A10E9428314B0138
:102FA0005C012D813E814F8158856D897E898F8995
:102FB000988D0E9469339B01AC01C501B4010E9448
:102FC00027314B015C0129893A894B895C896D85E0
:102FD0007E858F8598890E9469339B01AC01C5016C
:102FE000B4010E9427319B01AC010E9428319B0152
:102FF000AC01C701B6010E949931C856DF4F0FB628
:10300000F894DEBF0FBECDBFDF91CF911F910F911E
:10301000FF90EF90DF90CF90BF90AF909F908F90F8
:103020007F906F905F904F9008954F925F926F9254
:103030007F928F929F92AF92BF92CF92DF92EF9248
:10304000FF920F931F93CF93DF93CDB7DEB7C05C92
:10305000D1090FB6F894DEBF0FBECDBF69837A8366
:103060008B839C832DAB3EAB4FAB58AFE986FA8682
:103070000B871C87AD86BE86CF86D88ACD52DF4FA0
:10308000C880D980EA80FB80C35DD040C152DF4F49
:1030900088809980AA80BB80CF5DD040CD51DF4F22
:1030A000488059806A807B80C35ED04023EC35EF36
:1030B0004CE151E4C552DF4F688179818A819B815F
:1030C000CB5DD0400E94693369A77AA78BA79CA7E4
:1030D000A30192010E946933A30192010E94693306
:1030E00065966CAF7DAF8EAF9FAF659729813A81B2
:1030F0004B815C81CA01B9010E9428316D8B7E8BA6
:103100008F8B988FA70196010E9427310E94D6339A
:103110006D966CAF7DAF8EAF9FAF6D97C952DF4F8D
:10312000288139814A815B81C75DD040CA01B901DC
:103130000E942831E1966CAF7DAF8EAF9FAFE197D3
:103140002DEC3CEC4CEC5DE30E946933698F7A8F87
:103150008B8F9C8FA50194010E94693369AF7AAF70
:103160008BAF9CAFA50194010E946933E5966CAFCB
:103170007DAF8EAF9FAFE59729853A854B855C85FE
:10318000CA01B9010E942831698B7A8B8B8B9C8B89
:10319000A70196010E9427310E94D633A1966CAFF9
:1031A0007DAF8EAF9FAFA197C701B6010E94D63306
:1031B000A5966CAF7DAF8EAF9FAFA59729893A8951
:1031C0004B895C896D897E898F89988D0E94273112
:1031D0006D8F7E8F8F8F98A3A70196010E94283153
:1031E0000E94D633A9966CAF7DAF8EAF9FAFA997E3
:1031F000A7019601C701B6010E9428319B01AC01CD
:1032000069897A898B899C890E94273121966CAFC4
:103210007DAF8EAF9FAF21970E94D633C354DF4F4F
:10322000688379838A839B83CD5BD0402DEC3CEC13
:103230004CEC5DE36D857E858F8598890E946933AE
:103240006D837E838F839887A30192010E946933E7
:10325000A30192010E946933E9966CAF7DAF8EAFF6
:103260009FAFE99720E030E040E450E469857A853B
:103270008B859C850E9469339B01AC016D897E8999
:103280008F89988D0E942731A70196010E942831CD
:103290000E94943169966CAF7DAF8EAF9FAF6997F6
:1032A000A50194016D817E818F8198850E9469338B
:1032B00069A37AA38BA39CA3A50194010E946933FF
:1032C000ED966CAF7DAF8EAF9FAFED972DA93EA968
:1032D0004FA958ADCA01B9010E9428316D837E8380
:1032E0008F8398872DA93EA94FA958AD0E946933B5
:1032F000C552DF4F288139814A815B81CB5DD04047
:103300000E94693325966CAF7DAF8EAF9FAF259736
:10331000A30192010E946933A30192010E946933C3
:10332000C358DF4F688379838A839B83CD57D0400E
:1033300029893A894B895C8969817A818B819C8151
:103340000E942731A70196010E94283129966CAF6F
:103350007DAF8EAF9FAF29970E94D633AD966CAFED
:103360007DAF8EAF9FAFAD972DEC3CEC4CEC5DE3A9
:103370006D817E818F8198850E9469336DA77EA7BC
:103380008FA798ABA30192010E946933A301920118
:103390000E946933CF57DF4F688379838A839B8389
:1033A000C158D040A701960169817A818B819C81A7
:1033B0000E9427312D966CAF7DAF8EAF9FAF2D97BA
:1033C0000E9494316D837E838F8398879B01AC012B
:1033D000CF57DF4F688179818A819B81C158D04066
:1033E0000E946933CB57DF4F688379838A839B833D
:1033F000C558D040A50194016DA57EA58FA598A9BB
:103400000E946933C757DF4F688379838A839B8320
:10341000C958D0402D853E854F855889CA01B901CC
:103420000E9428312DEC3CEC4CEC5DE30E946933AA
:10343000C357DF4F688379838A839B83CD58D040FD
:10344000A701960169857A858B859C850E94273125
:1034500061966CAF7DAF8EAF9FAF61970E94943144
:1034600069AB7AAB8BAB9CABA5019401C357DF4F23
:10347000688179818A819B81CD58D0400E946933CF
:10348000CF56DF4F688379838A839B83C159D040AD
:10349000C552DF4F288139814A815B81CB5DD040A5
:1034A000698D7A8D8B8D9C8D0E946933A301920169
:1034B0000E946933CB56DF4F688379838A839B836D
:1034C000C559D040A301920169AD7AAD8BAD9CADD9
:1034D0000E946933C756DF4F688379838A839B8351
:1034E000C959D040A501940169A57AA58BA59CA5D1
:1034F0000E946933A30192010E94693369A77AA7E8
:103500008BA79CA72DEC3CEC4CEC5DE36DA97EA950
:103510008FA998AD0E946933698F7A8F8B8F9C8FAA
:10352000A30192010E946933A30192010E946933B1
:10353000C356DF4F688379838A839B83CD59D040FC
:1035400020E030E040E450E469817A818B819C8105
:103550000E94693329893A894B895C890E94273105
:10356000A70196010E9427310E949431698B7A8BC2
:103570008B8B9C8BA5019401698D7A8D8B8D9C8D95
:103580000E9469336DA37EA38FA398A7A501940120
:103590000E946933CF55DF4F688379838A839B8389
:1035A000C15AD04029853A854B855C856D897E89D5
:1035B0008F89988D0E942731A70196010E9427319B
:1035C0000E9494316D8B7E8B8F8B988F6D8D7E8D4D
:1035D0008F8D98A10E94943169877A878B879C8709
:1035E0002D966CAD7DAD8EAD9FAD2D970E94D633DF
:1035F000698F7A8F8B8F9C8F20E030E040E850E419
:103600006D857E858F8598890E9469336D8F7E8F49
:103610008F8F98A32D853E854F8558890E946933E9
:10362000C552DF4F288139814A815B81CB5DD04013
:103630000E9469332D966CAF7DAF8EAF9FAF2D97F3
:1036400061966CAD7DAD8EAD9FAD61970E94D63316
:1036500069AF7AAF8BAF9CAF29966CAD7DAD8EAD67
:103660009FAD29970E94943169837A838B839C83D1
:10367000A301920169A17AA18BA19CA10E94693347
:1036800069A37AA38BA39CA369962CAD3DAD4EADE7
:103690005FAD69970E94693329966CAF7DAF8EAF9D
:1036A0009FAF2997A501940125966CAD7DAD8EAD98
:1036B0009FAD25970E946933A30192010E9469334F
:1036C00025966CAF7DAF8EAF9FAF2597A30192017A
:1036D000C757DF4F688179818A819B81C958D04063
:1036E0000E94693361966CAF7DAF8EAF9FAF6197DB
:1036F0002D813E814F8158850E9469336D877E8779
:103700008F87988BC552DF4F288139814A815B8131
:10371000CB5DD0406DA57EA58FA598A90E94693389
:10372000A30192010E9469336B017C012D813E81CE
:103730004F8158850E946933CB55DF4F6883798369
:103740008A839B83C55AD0402DEC3CEC4CEC5DE366
:103750006D8D7E8D8F8D98A10E946933C552DF4F8C
:10376000288139814A815B81CB5DD0400E946933D9
:103770006D8F7E8F8F8F98A3A3019201CF56DF4F5D
:10378000688179818A819B81C159D0400E946933C7
:1037900029A93AA94BA95CA90E946933C755DF4FF3
:1037A000688379838A839B83C95AD040A30192019D
:1037B0006DA17EA18FA198A50E9469336DA37EA300
:1037C0008FA398A729893A894B895C890E9469331C
:1037D000C355DF4F688379838A839B83CD5AD0405A
:1037E0002D893E894F89588D69A17AA18BA19CA111
:1037F0000E94693369A37AA38BA39CA321966CAD25
:103800007DAD8EAD9FAD21970E9494316DA77EA7AF
:103810008FA798AB29813A814B815C81C701B601A2
:103820000E94693321966CAF7DAF8EAF9FAF219719
:1038300029813A814B815C816DA17EA18FA198A5E0
:103840000E9469336DA37EA38FA398A7A301920161
:10385000C552DF4F688179818A819B81CB5DD040E1
:103860000E946933CF54DF4F688379838A839B83B7
:10387000C15BD040A3019201C501B4010E9469332C
:10388000CB54DF4F688379838A839B83C55BD040A9
:10389000A5019401C501B4010E946933C754DF4FEB
:1038A000688379838A839B83C95BD0406D962CADF6
:1038B0003DAD4EAD5FAD6D9765966CAD7DAD8EAD9A
:1038C0009FAD65970E946933E5962CAD3DAD4EAD39
:1038D0005FADE5970E9427316B017C01A1962CAD6D
:1038E0003DAD4EAD5FADA19765966CAD7DAD8EAD36
:1038F0009FAD65970E9469339B01AC01C701B6017A
:103900000E9428316B017C01A5962CAD3DAD4EADDA
:103910005FADA59765966CAD7DAD8EAD9FAD65979E
:103920000E9469339B01AC01C701B6010E94273197
:103930006B017C01A9962CAD3DAD4EAD5FADA99755
:1039400065966CAD7DAD8EAD9FAD65970E94693378
:103950009B01AC01C701B6010E9427316B017C01BC
:10396000C952DF4F288139814A815B81C75DD040D0
:10397000E1966CAD7DAD8EAD9FADE1970E94693350
:10398000C552DF4F288139814A815B81CB5DD040B0
:103990000E946933A30192010E946933A30192013D
:1039A0000E946933C354DF4F288139814A815B818A
:1039B000CD5BD0400E9469339B01AC01C701B601C9
:1039C0000E9428316B017C0169962CAD3DAD4EAD56
:1039D0005FAD6997E9966CAD7DAD8EAD9FADE99712
:1039E0000E9469339B01AC01C701B6010E942731D7
:1039F0006B017C0169962CAD3DAD4EAD5FAD699715
:103A0000ED966CAD7DAD8EAD9FADED970E946933A7
:103A10009B01AC01C701B6010E9428316B017C01FA
:103A2000AD962CAD3DAD4EAD5FADAD97C358DF4FFC
:103A3000688179818A819B81CD57D0400E9469330A
:103A40009B01AC01C701B6010E942731CB57DF4F64
:103A5000288139814A815B81C558D0400E94283134
:103A6000CB57DF4F288139814A815B81C558D040CF
:103A70000E9428316B017C01A5019401C757DF4FDB
:103A8000688179818A819B81C958D0400E946933BD
:103A90002D813E814F8158850E9469339B01AC0185
:103AA000C701B6010E9427316B017C01A30192017D
:103AB000C357DF4F688179818A819B81CD58D0407F
:103AC0000E946933A30192010E94693329A93AA98E
:103AD0004BA95CA90E9469339B01AC01C701B601E7
:103AE0000E9428316B017C01A5019401CF56DF4F64
:103AF000688179818A819B81C159D0400E94693354
:103B000029A93AA94BA95CA90E9469339B01AC0180
:103B1000C701B6010E9427316B017C0120E030E033
:103B200040E850E4C952DF4F688179818A819B81E6
:103B3000C75DD0400E9469332DEC3CEC4CEC5DE35A
:103B40000E946933C552DF4F288139814A815B81E8
:103B5000CB5DD0400E946933A50194010E94693376
:103B60009B01AC01C701B6010E942731CB56DF4F44
:103B7000288139814A815B81C559D0400E94273113
:103B8000C756DF4F288139814A815B81C959D040AE
:103B90000E9427316B017C016D962CAD3DAD4EAD81
:103BA0005FAD6D9769A57AA58BA59CA50E94693329
:103BB0009B01AC01C701B6010E9428316B017C0159
:103BC000A1962CAD3DAD4EAD5FADA19769A57AA58F
:103BD0008BA59CA50E9469339B01AC01C701B6016E
:103BE0000E9428316B017C0129893A894B895C89C3
:103BF000C356DF4F688179818A819B81CD59D0403E
:103C00000E9469339B01AC01C701B6010E942731B4
:103C10006B017C0129893A894B895C89CF55DF4F3B
:103C2000688179818A819B81C15AD0400E94693321
:103C30009B01AC01C701B6010E9428316B017C01D8
:103C40002D893E894F89588DE9966CAD7DAD8EAD3D
:103C50009FADE9970E9469339B01AC01C701B60192
:103C60000E9427316B017C012D893E894F89588D37
:103C7000ED966CAD7DAD8EAD9FADED970E94693335
:103C80009B01AC01C701B6010E9428316B017C0188
:103C900029853A854B855C85E5966CAD7DAD8EAD0D
:103CA0009FADE5970E9469339B01AC01C701B60146
:103CB0000E9428316B017C01298D3A8D4B8D5C8DE2
:103CC000C358DF4F688179818A819B81CD57D0406D
:103CD0000E9469339B01AC01C701B6010E942831E3
:103CE0006B017C01A30192012D966CAD7DAD8EAD73
:103CF0009FAD2D970E946933A30192010E94693301
:103D000029AD3AAD4BAD5CAD0E9469339B01AC016E
:103D1000C701B6010E9428316B017C0129813A81DB
:103D20004B815C81CF57DF4F688179818A819B818C
:103D3000C158D0400E9469339B01AC01C701B60154
:103D40000E9427316B017C0129813A814B815C8182
:103D5000C356DF4F688179818A819B81CD59D040DC
:103D60000E9469339B01AC01C701B6010E94273153
:103D70006B017C0129813A814B815C81CF55DF4FFA
:103D8000688179818A819B81C15AD0400E946933C0
:103D90009B01AC01C701B6010E9428316B017C0177
:103DA000A5962CAD3DAD4EAD5FADA59769A57AA5A5
:103DB0008BA59CA50E9469339B01AC01C701B6018C
:103DC0000E9427316B017C01A9962CAD3DAD4EAD13
:103DD0005FADA99769A57AA58BA59CA50E946933BB
:103DE0009B01AC01C701B6010E94273129962CAD79
:103DF0003DAD4EAD5FAD29970E94273129962CAD80
:103E00003DAD4EAD5FAD29970E9428316B017C011D
:103E1000AD962CAD3DAD4EAD5FADAD9725966CAD7D
:103E20007DAD8EAD9FAD25970E9469339B01AC019E
:103E3000C701B6010E9427312D853E854F855889DF
:103E40000E942831CB55DF4F288139814A815B811F
:103E5000C55AD0400E9428316B017C0120E030E03F
:103E600040E850E46DA97EA98FA998AD0E946933FE
:103E70002DEC3CEC4CEC5DE30E946933C552DF4F06
:103E8000288139814A815B81CB5DD0400E946933B2
:103E9000A50194010E9469332D813E814F8158858F
:103EA0000E9469339B01AC01C701B6010E94273112
:103EB0002D853E854F8558890E942831CB55DF4F8F
:103EC000288139814A815B81C55AD0400E942731BF
:103ED0002D853E854F8558890E9427316B017C01D5
:103EE000A30192016D8D7E8D8F8D98A10E94693303
:103EF00029A93AA94BA95CA90E9469339B01AC018D
:103F0000C701B6010E9428316B017C01A501940113
:103F10006D8D7E8D8F8D98A10E94693329A93AA954
:103F20004BA95CA90E9469339B01AC01C701B60192
:103F30000E942731C755DF4F288139814A815B8133
:103F4000C95AD0400E942831C755DF4F2881398196
:103F50004A815B81C95AD0400E942731C355DF4F47
:103F6000288139814A815B81CD5AD0400E94273116
:103F700029A13AA14BA15CA10E942731C355DF4F73
:103F8000288139814A815B81CD5AD0400E942831F5
:103F900029A13AA14BA15CA10E9428316B017C01AF
:103FA00029853A854B855C85C756DF4F68817981C5
:103FB0008A819B81C959D0400E9469339B01AC0121
:103FC000C701B6010E9428316B017C012DA53EA5D9
:103FD0004FA558A9CB56DF4F688179818A819B8193
:103FE000C559D0400E9469339B01AC01C701B6019D
:103FF0000E9428316B017C01298D3A8D4B8D5C8D9F
:1040000025966CAD7DAD8EAD9FAD25970E94693331
:104010009B01AC01C701B6010E9428316B017C01F4
:10402000A50194012D966CAD7DAD8EAD9FAD2D9704
:104030000E946933A30192010E94693329AD3AAD10
:104040004BAD5CAD0E9469339B01AC01C701B60169
:104050000E9428316B017C0129813A814B815C816E
:1040600061966CAD7DAD8EAD9FAD61970E94693359
:104070009B01AC01C701B6010E94273121962CADEE
:104080003DAD4EAD5FAD21970E9428312DA13EA1DF
:104090004FA158A50E94273121962CAD3DAD4EADC4
:1040A0005FAD21970E9428312DA13EA14FA158A5B7
:1040B0000E9428316B017C01A3019201C301B2016E
:1040C0000E94283169837A838B839C83C552DF4F9A
:1040D000288139814A815B81CB5DD040CA01B90119
:1040E0000E942831A50194010E946933CF54DF4F0B
:1040F000288139814A815B81C15BD0400E9428318F
:10410000CB54DF4F288139814A815B81C55BD04028
:104110000E9428312B013C0129853A854B855C851D
:10412000C754DF4F688179818A819B81C95BD04008
:104130000E9469339B01AC01C301B2010E94273187
:10414000C754DF4F288139814A815B81C95BD040E8
:104150000E9428312B013C0129853A854B855C85DD
:10416000CB54DF4F688179818A819B81C55BD040C8
:104170000E9469339B01AC01C301B2010E94273147
:104180002B013C012DA53EA54FA558A9CF54DF4FCB
:10419000688179818A819B81C15BD0400E946933AB
:1041A0009B01AC01C301B2010E9427319B01AC010C
:1041B00069817A818B819C810E9469339B01AC016A
:1041C000C701B6010E949931C054DF4F0FB6F89471
:1041D000DEBF0FBECDBFDF91CF911F910F91FF903A
:1041E000EF90DF90CF90BF90AF909F908F907F9097
:1041F0006F905F904F90089581E08093210284B189
:10420000836084B98AB18C6F8AB9389A399A3A9A9C
:104210003B9A3C9A439A409A419A449A62E370E0EE
:1042200080E090E00E94C10A449864E670E080E07B
:1042300090E00E94C10A449A64E670E080E090E059
:104240000E94C10A60E070E080EB90E00C946C0684
:104250001F93CF93DF9300D0CDB7DEB7162F2091F9
:104260002102211106C089839A830E94FC209A8131
:1042700089814398429825B1392F33702C7F232BA5
:1042800025B92BB19C7F2370922B9BB94198419A01
:1042900095B1282F23709C7F922B95B99BB18C7F71
:1042A0009370892B8BB94198419A429A84B18C7F43
:1042B00084B98AB183708AB961E070E080E090E0EF
:1042C0000E94C10A409A40984098409823B139B161
:1042D000409A409A40984098409883B199B1409A4A
:1042E000115017FFEFCF409A439A44B1436044B94D
:1042F0004AB14C6F4AB9482F4370892F8C7F842B69
:104300002370932F9C7F292B90E0922B0F900F907E
:10431000DF91CF911F910895FF920F931F93CF9339
:10432000DF938C0160E00E942821EC0161E0C8016C
:104330000E942821F82E62E0C8010E94282100E096
:1043400010E01F2DA80160E070E08E0120E030E059
:10435000302F222711270027042B152B262B372B34
:10436000492F50E060E070E0CB01BA01602B712B67
:10437000822B932BDF91CF911F910F91FF90089586
:104380000F931F93CF93DF938C0160E00E9428214D
:10439000EC0161E0C8010E942821AC01CE01A0E03F
:1043A000B0E0DC019927882760E070E08C019D0176
:1043B000042B152B262B372BC901B801DF91CF9188
:1043C0001F910F9108952F923F924F925F926F929B
:1043D0007F928F929F92AF92BF92CF92DF92EF9295
:1043E000FF920F931F93CF93DF93CDB7DEB728973C
:1043F0000FB6F894DEBF0FBECDBF5C012B016A0182
:10440000AB014550510986012BE030E0BC018DEE37
:1044100091E00E946C0466246394712CE12CF12CD1
:1044200045E050E058874F8386EF9FEF9C838B8356
:104430002CEF822E99249A945FEFE51AF50A82E018
:10444000680E711C860C971C2F803884220C331C3C
:104450009FEF291A390AB5016E0D7F1D8601910162
:10446000F2014F815885E41BF50BFA83E983AF0114
:104470008DEE91E00E946C04C2018E199F099E830B
:104480008D839301AC016F8178856A0D7B1D8DEE64
:1044900091E00E946C04B5016E197F099101498178
:1044A0005A818DEE91E00E946C0493014D815E81F2
:1044B000B501EF81F8856E1B7F0B8DEE91E00E94B8
:1044C0006C044F815885E416F50684F497FCB4CF4C
:1044D000EF81F8853197F887EF834B815C814E5FE0
:1044E0005F4F5C834B83840E951EA6CF28960FB634
:1044F000F894DEBF0FBECDBFDF91CF911F910F911A
:10450000FF90EF90DF90CF90BF90AF909F908F90F3
:104510007F906F905F904F903F902F900895EDEEB9
:10452000F1E01382128220EF30E03583248380E4AF
:1045300091E0978386833187208793878287158AC6
:10454000158614861786168681E0848B2FEF3FEF41
:10455000338B228B318B208B868B178A118E108E9A
:1045600088E091E0918380830895CF93DF93CDB766
:10457000DEB7C659D1090FB6F894DEBF0FBECDBF66
:10458000789484B5826084BD84B5816084BD85B52E
:10459000826085BD85B5816085BD80916E0081603A
:1045A00080936E00109281008091810082608093E0
:1045B00081008091810081608093810080918000E2
:1045C0008160809380008091B10084608093B1000D
:1045D0008091B00081608093B00080917A00846007
:1045E00080937A0080917A00826080937A00809133
:1045F0007A00816080937A0080917A00806880934D
:104600007A001092C1000E94BB090E94FC2060E069
:1046100080E090E00E942821883024E5920709F488
:10462000C0C0803234E5930709F4BEC08938994888
:1046300009F4BDC060E087E690E00E94282187343D
:10464000974409F4B7C081EA90E00E94C02161302C
:10465000E1E67E0709F4B1C06F3F7F4F19F406E22F
:1046600015E1D9C08FEB90E00E948C21673523E8DB
:10467000720709F4A5C0613834E9730709F4A3C0CF
:10468000613185E1780709F4A1C0603295E17907CD
:1046900009F49FC06632A5E17A0709F36138B5E1F4
:1046A0007B0709F499C06115744109F498C084ED41
:1046B00090E00E94C0216031734509F493C087EDFA
:1046C00090E00E94C0216133704809F48EC08FEEE3
:1046D00090E00E948C216732734909F489C08EEF03
:1046E00090E00E94C021BB27A92F982F872F8335E8
:1046F000904209F480C084E090E00E94C0219B01B8
:10470000811120C061157048E9F48FEF898383E837
:104710008A8387E58B83AE014F5F5F4F63E089EB50
:1047200090E00E94E20560E080ED90E00E94282188
:10473000893929F08039A1F400E910E96CC009E950
:1047400010E069C0263285E1380709F488CF2235A8
:1047500095E8390709F452C021313C4A09F451C0A7
:1047600083ED90E00E94C0213DE6370F323008F41F
:104770004BC0783909F448C0773709F445C0763121
:1047800009F442C0633D710509F440C0633D734DB7
:1047900009F43FC060E080E090E00E9428218C0195
:1047A0003AC008E014E537C000E214E534C009E877
:1047B00012E131C007E413E82EC003E619E12BC073
:1047C00007E513E828C001E814E925C001E115E177
:1047D00022C000E215E11FC001E815E11CC004E1A0
:1047E00018E619C000E113E516C001E310E813C094
:1047F00007E213E910C003E510E20DC009E817E76E
:104800000AC001E11CEA07C08B0105C003ED10E0FE
:1048100002C003ED13ED0E94FC20109208021092DA
:10482000070210930C0200930B020230E3E91E070B
:1048300009F49DC108F092C0033520E2120709F483
:104840008AC108F046C0003285E1180709F410C19A
:1048500030F50530A5E11A0709F446C10131B5E18B
:104860001B0709F4EDC00939110509F0CFC183E137
:1048700094E190930A028093090280EE91E0909374
:10488000F4018093F30180E491E09093F20180932E
:10489000F101FDE1EF2EF12C06EC11E0BDC1013874
:1048A000E5E11E0709F472C10230F6E11F0709F4C1
:1048B0004FC10632154109F0A9C183E194E09093FC
:1048C0000A02809309028CE0E82EF12C0AE312E040
:1048D000A3C1093837E7130709F4D6C030F508300B
:1048E00094E5190709F400C10930A8E61A0709F48C
:1048F00006C10031134509F089C183E19EE0909320
:104900000A028093090280EE91E09093F401809373
:10491000F30180E491E09093F2018093F10102E0D1
:10492000E02EF12C08E312E077C10133E0E81E0726
:1049300009F4B6C038F40639174709F067C183E0B7
:1049400094E041C1073533E8130709F4B5C00039D5
:10495000104909F05BC183E194E1B0C0023493E9EE
:10496000190798F50034A3E91A0708F003C10832C3
:10497000B3E91B0709F4C6C078F40532F3E91F0751
:1049800009F4C0C0073223E9120709F4C9C0003294
:10499000134909F03BC1A8C0013383E9180709F4A2
:1049A000B4C038F40932134909F030C183E096E10C
:1049B000D4C00533B3E91B0709F4A7C00833134972
:1049C00009F024C183E194E0C8C00938F4E91F0765
:1049D00030F5073824E9120708F0F3C0013834E94C
:1049E000130709F4D6C00638144909F00FC183E053
:1049F00094E090930A028093090280EE91E09093F4
:104A0000F4018093F30180E491E09093F2018093AC
:104A1000F1014BE3E42EF12C00EC10E0FDC0053079
:104A200095EB190709F4E5C00530A5EC1A0709F460
:104A3000E0C001311C4A09F0E9C083E194E18DC076
:104A400083E090E090930A028093090280EE91E067
:104A50009093F4018093F30180E491E09093F2014C
:104A60008093F10123E0E22EF12C0CE412E0D4C09B
:104A700083E194E090930A028093090296E0E92E84
:104A8000F12C06E412E0C8C083E194E090930A029E
:104A90008093090211E4E12EF12C07EF11E0BCC074
:104AA00083E194E190930A0280930902B2E1EB2E34
:104AB000F12C05EE11E0B0C083E094E190930A027E
:104AC0008093090280EE91E09093F4018093F301CA
:104AD00080E491E09093F2018093F101A2E0EA2E4C
:104AE000F12C03EE11E098C084E090E190930A026B
:104AF0008093090268ED70E08BEC93E084C082E063
:104B000091E105C080E091E102C080E090E19093E6
:104B10000A02809309026CEC70E08FEF92E073C0A0
:104B200083E094E090930A028093090280E991E087
:104B30009093F4018093F30180EF90E09093F20161
:104B40008093F101EEE1EE2EF12C08EA11E064C051
:104B500083E195E002C087E194E190930A0280939B
:104B6000090273E0E72EF12C05EA11E055C083E05D
:104B700094E0F3CF83E194E090930A0280930902DA
:104B800065E6E62EF12C00E411E046C083E194E0F6
:104B900002C087E094E090930A028093090280EEBD
:104BA00091E09093F4018093F30180E491E090937D
:104BB000F2018093F10155E4E52EF12C0BEF10E0AA
:104BC0002BC083E194E090930A028093090280EE67
:104BD00091E09093F4018093F30180E491E090934D
:104BE000F2018093F1013BE2E32EF12C05E910E0A4
:104BF00013C088E090E190930A028093090260EB71
:104C000070E08FE492E00E94A50604C01092F201C9
:104C10001092F10100E010E020910A02822F8295AB
:104C20008F7090E08170992790930E0280930D020F
:104C30000115110581F069E070E08CE890E00E94B8
:104C40001606B701C8010E94160666E070E086E805
:104C500090E00E94160660E08DEE91E00E948908C7
:104C600060E08DEE91E00E94C9066EEE7EEE8DEE64
:104C700091E00E9455058091D3019091D4019C014F
:104C80002F5F3F4F3093D4012093D3018130984060
:104C900044F00E94BB096EEE7EEE8DEE91E00E9424
:104CA00055058091DD019091DE01A091DF01B09169
:104CB000E0018DA39EA3AFA3B8A72AE037ED43EA96
:104CC0005CE3BC01CD010E946933EB966CAF7DAF14
:104CD0008EAF9FAFEB97909141019C83A0914201D1
:104CE000A887B0914301BC87E0914401EC8BF0911F
:104CF0003D01FD8B20913E012E8B30913F013F8B7A
:104D000080914001888F90913901998FA0913A014B
:104D1000AA8FB0913B01BB8FE0913C01EC8F2090BA
:104D2000D9013090DA018090DB019090DC01509045
:104D3000C7014090C8016090C9017090CA0180917C
:104D4000D5019091D601A091D701B091D80189A742
:104D50009AA7ABA7BCA78091CB019091CC01A09161
:104D6000CD01B091CE018DA79EA7AFA7B8AB809122
:104D7000CF019091D001A091D101B091D20189AB26
:104D80009AABABABBCAB9C899F93AC85AF93B8851A
:104D9000BF93EC81EF93F88DFF933F932F932D8971
:104DA0002F933C8D3F938B8D8F939A8D9F93A98DDD
:104DB000AF939F928F923F922F927F926F924F92DA
:104DC0005F92A9A4BAA4CBA4DCA4EDA4FEA40FA571
:104DD00018A92DA13EA14FA158A569A97AA98BA90F
:104DE0009CA90E94FB0A0FB6F894DEBF0FBECDBF90
:104DF0002AE037ED43EA5CE30E946933EF966CAF3B
:104E00007DAF8EAF9FAFEF972AE037ED43EA5CE3CB
:104E1000C601B5010E946933C158DF4F68837983A9
:104E20008A839B83CF57D040FC89FF932C852F9397
:104E300038853F938C818F93988D9F93AF89AF93E3
:104E4000BE89BF93ED89EF93FC8DFF932B8D2F933C
:104E50003A8D3F93898D8F939F928F923F922F929D
:104E60007F926F924F925F92A9A4BAA4CBA4DCA4C4
:104E7000EDA4FEA40FA518A92DA13EA14FA158A5F0
:104E800069A97AA98BA99CA90E947C100FB6F894F5
:104E9000DEBF0FBECDBF2AE037ED43EA5CE30E94E0
:104EA0006933CD57DF4F688379838A839B83C358E7
:104EB000D0402AE037ED43EA5CE32DAA3EAA8FAA50
:104EC00098AEB101C4010E946933C957DF4F6883AE
:104ED00079838A839B83C758D040BC89BF93EC8574
:104EE000EF93F885FF932C812F93388D3F938F8913
:104EF0008F939E899F93AD89AF93BC8DBF93EB8DAC
:104F0000EF93FA8DFF93298D2F9338AD3F938FA99F
:104F10008F939EA99F93ADA9AF937F926F924F926B
:104F20005F92A9A4BAA4CBA4DCA4EDA4FEA40FA50F
:104F300018A92DA13EA14FA158A569A97AA98BA9AD
:104F40009CA90E9415180FB6F894DEBF0FBECDBF06
:104F50002AE037ED43EA5CE30E946933C557DF4F2F
:104F6000688379838A839B83CB58D04020E030E0EC
:104F700040E05FE3EF966CAD7DAD8EAD9FADEF97FA
:104F80000E9469339B01AC016DA17EA18FA198A500
:104F90000E942831688B798B8A8B9B8B2AE037EDB6
:104FA00043EA5CE30E9469336E966CAF7DAF8EAFCF
:104FB0009FAF6E9720E030E040E05FE3C557DF4FE2
:104FC000688179818A819B81CB58D0400E94693366
:104FD0009B01AC01BDA9AEA9FFA9E8AD6B2F7A2F4B
:104FE0008F2F9E2F0E942831862E272E382E992E05
:104FF00020E030E040E05FE3C957DF4F688179810E
:105000008A819B81C758D0400E9469339B01AC01C3
:1050100067965FAE679768964FAE689769966FAE72
:1050200069976A967FAE6A97652D742DC3010E94B9
:10503000283169AF7DAF22968FAF229726969FAF1A
:10504000269720E030E040E05FE3CD57DF4F6881F6
:1050500079818A819B81C358D0400E9469339B012A
:10506000AC01C601B5010E9428312B013C0120E0B2
:1050700030E040E05FE3C158DF4F688179818A8189
:105080009B81CF57D0400E9469339B01AC01C8017E
:10509000B7010E9428316D8F7E8F8F8F98A320E0FB
:1050A00030E040E05FE3EB966CAD7DAD8EAD9FAD43
:1050B000EB970E9469339B01AC0169A97AA98BA97E
:1050C0009CA90E94283169A37AA38BA39CA3FC8985
:1050D000FF932C852F9338853F938C818F93988DE8
:1050E0009F93AF89AF93BE89BF93ED89EF93FC8DFA
:1050F000FF932B8D2F933A8D3F93898D8F939F92A2
:105100003F922F928F9226969FAD26979F9322963D
:10511000AFAD2297AF93BDADBF93E9ADEF93630100
:105120005201ED8CFE8C0F8D18A1288939894A898E
:105130005B8969A17AA18BA19CA10E94FB0A0FB691
:10514000F894DEBF0FBECDBF2AE037ED43EA5CE343
:105150000E946933A2966CAF7DAF8EAF9FAFA297CE
:105160002AE037ED43EA5CE3C301B2010E946933F0
:10517000A6966CAF7DAF8EAF9FAFA6973C893F934D
:105180008C858F9398859F93AC81AF93B88DBF9397
:10519000EF89EF93FE89FF932D892F933C8D3F93E9
:1051A0008B8D8F939A8D9F93A98DAF939F923F92F2
:1051B0002F928F922696BFAD2697BF932296EFAD82
:1051C0002297EF93FDADFF9329AD2F93ED8CFE8CCD
:1051D0000F8D18A1288939894A895B8969A17AA12B
:1051E0008BA19CA10E947C100FB6F894DEBF0FBE6D
:1051F000CDBF2AE037ED43EA5CE30E946933AA960B
:105200006CAF7DAF8EAF9FAFAA972AE037ED43EA30
:105210005CE3682D722D832D992D0E946933AE9623
:105220006CAF7DAF8EAF9FAFAE97BC89BF93EC855F
:10523000EF93F885FF932C812F93388D3F938F89BF
:105240008F939E899F93AD89AF93BC8DBF93EB8D58
:10525000EF93FA8DFF93298D2F939F923F922F9278
:105260008F9226963FAD26973F9322968FAD229739
:105270008F939DAD9F93A9ADAF93ED8CFE8C0F8D59
:1052800018A1288939894A895B8969A17AA18BA1EA
:105290009CA10E9415180FB6F894DEBF0FBECDBFBB
:1052A0002AE037ED43EA5CE30E94693369AF7AAFE5
:1052B0008BAF9CAF20E030E040E05FE3A2966CADA6
:1052C0007DAD8EAD9FADA2970E9469339B01AC016D
:1052D0006DA17EA18FA198A50E9428312B013C01D0
:1052E0002AE037ED43EA5CE30E94693321966CAF14
:1052F0007DAF8EAF9FAF219720E030E040E05FE3CD
:1053000069AD7AAD8BAD9CAD0E9469339B01AC0158
:10531000BDA9AEA9FFA9E8AD6B2F7A2F8F2F9E2FC5
:105320000E942831862E272E382E992E20E030E03C
:1053300040E05FE3AE966CAD7DAD8EAD9FADAE97B8
:105340000E9469339B01AC016796BFAD6797689671
:10535000AFAD68976996FFAD69976A96EFAD6A97AA
:105360006B2F7A2F8F2F9E2F0E9428312A966FAF96
:105370002A972E967FAF2E9762968FAF629766968A
:105380009FAF669720E030E040E05FE3AA966CAD07
:105390007DAD8EAD9FADAA970E9469339B01AC0194
:1053A00069A57AA58BA59CA50E942831688B798B6D
:1053B0008A8B9B8B20E030E040E05FE3A6966CADEB
:1053C0007DAD8EAD9FADA6970E9469339B01AC0168
:1053D0006DA57EA58FA598A90E9428316D8F7E8F1F
:1053E0008F8F98A320E030E040E05FE36E966CADD5
:1053F0007DAD8EAD9FAD6E970E9469339B01AC0170
:1054000069A97AA98BA99CA90E94283169A37AA3CA
:105410008BA39CA3FC89FF932C852F9338853F9306
:105420008C818F93988D9F93AF89AF93BE89BF93E3
:10543000ED89EF93FC8DFF932B8D2F933A8D3F9346
:10544000898D8F939F923F922F928F9266969FADF8
:1054500066979F936296AFAD6297AF932E96BFAD5E
:105460002E97BF932A96EFAD2A97EF93A888B98815
:10547000CA88DB88ED8CFE8C0F8D18A1A3019201E8
:1054800069A17AA18BA19CA10E94FB0A0FB6F89496
:10549000DEBF0FBECDBF2AE037ED43EA5CE30E94DA
:1054A000693325966CAF7DAF8EAF9FAF25972AE00D
:1054B00037ED43EA5CE3C601B5010E9469332996E2
:1054C0006CAF7DAF8EAF9FAF29973C893F938C85A2
:1054D0008F9398859F93AC81AF93B88DBF93EF89DD
:1054E000EF93FE89FF932D892F933C8D3F938B8DF6
:1054F0008F939A8D9F93A98DAF939F923F922F92F6
:105500008F926696BFAD6697BF936296EFAD629736
:10551000EF932E96FFAD2E97FF932A962FAD2A97E5
:105520002F93A888B988CA88DB88ED8CFE8C0F8DF4
:1055300018A1A301920169A17AA18BA19CA10E944B
:105540007C100FB6F894DEBF0FBECDBF2AE037ED5A
:1055500043EA5CE30E946933E2966CAF7DAF8EAFA5
:105560009FAFE2972AE037ED43EA5CE3682D722DA6
:10557000832D992D0E946933E6966CAF7DAF8EAF77
:105580009FAFE697BC89BF93EC85EF93F885FF93B7
:105590002C812F93388D3F938F898F939E899F9372
:1055A000AD89AF93BC8DBF93EB8DEF93FA8DFF93D5
:1055B000298D2F939F923F922F928F9266963FADA7
:1055C00066973F9362968FAD62978F932E969FADAD
:1055D0002E979F932A96AFAD2A97AF93A888B98844
:1055E000CA88DB88ED8CFE8C0F8D18A1A301920177
:1055F00069A17AA18BA19CA10E9415180FB6F894FD
:10560000DEBF0FBECDBF2AE037ED43EA5CE30E9468
:1056100069332D966CAF7DAF8EAF9FAF2D972596DA
:105620002CAD3DAD4EAD5FAD25976DA17EA18FA197
:1056300098A50E942831688B798B8A8B9B8B2D963D
:105640002CAD3DAD4EAD5FAD2D97BDA9AEA9FFA967
:10565000E8AD6B2F7A2F8F2F9E2F0E9428316D8FF0
:1056600079A31C01E6962CAD3DAD4EAD5FADE6973E
:105670006796BFAD67976896AFAD68976996FFADBF
:1056800069976A96EFAD6A976B2F7A2F8F2F9E2FAF
:105690000E942831962E872E66968FAF6697E796E2
:1056A0009FAFE797E2962CAD3DAD4EAD5FADE29773
:1056B00069A57AA58BA59CA50E9428312B013C01E8
:1056C00029962CAD3DAD4EAD5FAD29976DA57EA55C
:1056D0008FA598A90E94283161966CAF7DAF8EAFDF
:1056E0009FAF619721962CAD3DAD4EAD5FAD21973B
:1056F00069A97AA98BA99CA90E94283165966CAFEB
:105700007DAF8EAF9FAF6597FC89FF932C852F935C
:1057100038853F938C818F93988D9F93AF89AF93FA
:10572000BE89BF93ED89EF93FC8DFF932B8D2F9353
:105730003A8D3F93898D8F933F922F9299A19F939A
:10574000AD8DAF93E796BFADE797BF936696EFAD8C
:105750006697EF938F929F92630152016196ECAC32
:10576000FDAC0EAD1FAD6197288939894A895B89E7
:1057700065966CAD7DAD8EAD9FAD65970E94FB0AC1
:105780000FB6F894DEBF0FBECDBFC157DF4F6883A1
:1057900079838A839B83CF58D0403C893F938C8503
:1057A0008F9398859F93AC81AF93B88DBF93EF890A
:1057B000EF93FE89FF932D892F933C8D3F938B8D23
:1057C0008F939A8D9F93A98DAF933F922F92B9A1FA
:1057D000BF93ED8DEF93E796FFADE797FF93669646
:1057E0002FAD66972F938F929F926196ECACFDAC94
:1057F0000EAD1FAD6197288939894A895B89659605
:105800006CAD7DAD8EAD9FAD65970E947C100FB6DF
:10581000F894DEBF0FBECDBFCD56DF4F68837983CE
:105820008A839B83C359D040BC89BF93EC85EF9397
:10583000F885FF932C812F93388D3F938F898F9319
:105840009E899F93AD89AF93BC8DBF93EB8DEF93F2
:10585000FA8DFF93298D2F933F922F9239A13F9379
:105860008D8D8F93E7969FADE7979F936696AFAD2B
:105870006697AF938F929F926196ECACFDAC0EADA4
:105880001FAD6197288939894A895B8965966CAD16
:105890007DAD8EAD9FAD65970E9415180FB6F8943B
:1058A000DEBF0FBECDBF4B015C01A2962CAD3DAD5E
:1058B0004EAD5FADA297CA01B9010E9428319B018C
:1058C000AC01EF966CAD7DAD8EAD9FADEF970E94B4
:1058D00028316B017C0125962CAD3DAD4EAD5FAD01
:1058E0002597CA01B9010E9428319B01AC01C7016B
:1058F000B6010E9428316B017C012AE037ED43EAB2
:105900005CE3C157DF4F688179818A819B81CF58E1
:10591000D0400E9469339B01AC01C701B6010E94CF
:10592000283120E030E040EC50E40E9499319B01A6
:10593000AC016DA17EA18FA198A50E942831609332
:10594000DD017093DE018093DF019093E001AA9660
:105950002CAD3DAD4EAD5FADAA97CA01B9010E9415
:1059600028319B01AC01CD57DF4F688179818A8155
:105970009B81C358D0400E9428316B017C01E29684
:105980002CAD3DAD4EAD5FADE297CA01B9010E94AD
:1059900028319B01AC01C701B6010E9428316B017F
:1059A0007C012AE037ED43EA5CE3CD56DF4F6881A6
:1059B00079818A819B81C359D0400E9469339B01C0
:1059C000AC01C701B6010E94283120E030E040EC74
:1059D00050E40E9499319B01AC0169A57AA58BA581
:1059E0009CA50E9428316093D5017093D6018093C5
:1059F000D7019093D80129AD3AAD4BAD5CADCA014A
:105A0000B9010E9428319B01AC01C557DF4F688165
:105A100079818A819B81CB58D0400E9428316B01CB
:105A20007C012D962CAD3DAD4EAD5FAD2D97CA01DD
:105A3000B9010E9428319B01AC01C701B6010E9447
:105A400028316B017C012AE037ED43EA5CE3C501B4
:105A5000B4010E9469339B01AC01C701B6010E94E9
:105A6000283120E030E040EC50E40E9499319B0165
:105A7000AC01BDA9AEA9FFA9E8AD6B2F7A2F8F2F7E
:105A80009E2F0E9428316093D9017093DA01809390
:105A9000DB019093DC011092880110928701109233
:105AA0008C0110928B016E962CAD3DAD4EAD5FAD6D
:105AB0006E97CA01B9010E9428319B01AC01EB9697
:105AC0006CAD7DAD8EAD9FADEB970E9428316B0123
:105AD0007C0121962CAD3DAD4EAD5FAD2197CA0145
